:020000040800F2
:10000000100400209D010008DD0300089303000890
:10001000D9030008F5020008D5040008000000001C
:100020000000000000000000000000004304000881
:10003000F902000800000000DF0300086D0400085A
:10004000B7010008B7010008B7010008B7010008B0
:10005000B7010008B7010008B7010008B7010008A0
:10006000B7010008B7010008B7010008B701000890
:10007000B7010008B7010008B7010008B701000880
:10008000B7010008B7010008B7010008B701000870
:10009000B7010008B7010008B7010008B701000860
:1000A000B7010008B7010008B7010008B701000850
:1000B000B7010008B7010008B7010008B701000840
:1000C000B7010008B7010008B7010008B701000830
:1000D000B7010008B7010008B7010008B701000820
:1000E000B7010008B7010008B7010008B701000810
:1000F000B7010008B7010008B7010008B701000800
:10010000B7010008B7010008B7010008B7010008EF
:10011000B7010008B7010008B7010008B7010008DF
:10012000B7010008B7010008B7010008B7010008CF
:10013000B7010008B7010008B7010008B7010008BF
:10014000B7010008B7010008B7010008B7010008AF
:10015000B7010008B7010008B7010008B70100089F
:10016000B7010008B7010008B7010008B70100088F
:10017000B7010008B7010008B7010008B70100087F
:10018000B7010008B7010008DFF80CD000F0A0F8B4
:1001900000480047290B000810040020064880474B
:1001A00006480047FEE7FEE7FEE7FEE7FEE7FEE75C
:1001B000FEE7FEE7FEE7FEE771040008890100089C
:1001C000202A04DB203A00FA02F100207047914017
:1001D000C2F1200320FA03F3194390407047202A0C
:1001E00004DB203A21FA02F00021704721FA02F3E1
:1001F000D040C2F12002914008431946704740EABE
:1002000001039B0703D009E008C9121F08C0042A94
:10021000FAD203E011F8013B00F8013B521EF9D27B
:100220007047D2B201E000F8012B491EFBD27047A3
:100230000022F6E710B513460A4604461946FFF7B2
:10024000F0FF204610BD421C10F8011B0029FBD115
:10025000801A704730B504460020034600E05B1C5E
:10026000934203D2E05CCD5C401BF8D030BD2DE959
:10027000F05F0546002092469B468846064681462A
:1002800040241BE02846414647462246FFF7A7FF89
:1002900053465A46C01A914110D311461846224679
:1002A000FFF78EFF2D1A67EB01084F46224601200B
:1002B0000021FFF785FF17EB00094E41201EA4F136
:1002C0000104DFDC484631462A464346BDE8F09F3C
:1002D000064C074D06E0E06840F0010394E8070093
:1002E00098471034AC42F6D3FFF752FF6012000873
:1002F0008012000800BFFEE77047F0B50A460021F3
:100300000023002400BF3DE0012505FA01F3156834
:1003100005EA03049C4234D105684F000326BE4021
:10032000B543056015794E00B54006683543056054
:100330001579012D02D01579022D16D185684F004F
:100340000326BE40B543856055794E00B5408668AA
:1003500035438560456801268E40B5434560456854
:1003600096798E40B6B235434560C5684F00032686
:10037000BE40B543C560D5794E00B540C66835432B
:10038000C560491C1029BFD3F0BD4183704701836C
:10039000704700BFFEE700001CB50121202000F0DF
:1003A0001FF84FF4C060009001208DF80400002079
:1003B0008DF8060003208DF8050001208DF8070058
:1003C00069460448FFF799FF4FF4C0610148FFF701
:1003D000DEFF1CBD0014024000BFFEE770477047FF
:1003E00029B1064A12680243044B1A6004E0034A2A
:1003F00012688243014B1A60704700003038024097
:100400002DE9F041B4B006460D4617461C464FF0A4
:10041000000805B11CB9012034B0BDE8F08169467F
:10042000304600F0EFFC80463A462946684600F028
:10043000ECFD80462146684600F0DCFC80464046E4
:10044000EAE77047042808D14FF0E021096941F03C
:1004500004014FF0E022116107E04FF0E02109694B
:1004600021F004014FF0E022116170477047000055
:100470001448006840F4700012490860124800688F
:1004800040F001001049086000200F490831086061
:100490000D4800680D4908400B4908600C48091DCB
:1004A0000860081F006820F48020091F08600020F1
:1004B00005490C3108604FF000600249803908603E
:1004C0007047000088ED00E000380240FFFFF6FEB4
:1004D0001030002400BFFEE70FB4054B10B503A990
:1004E000044A029800F018F810BC5DF814FB0000F4
:1004F000990800080000002002E008C8121F08C187
:10050000002AFAD170477047002001E001C1121F94
:10051000002AFBD1704700002DE9FF4F8DB09B46AC
:100520000F460446002606E025280BD05A460F99B0
:100530009047641C761C20780028F5D111B0304615
:10054000BDE8F08F0025A8460122984900E0054348
:1005500014F8013F203B02FA03F00842F7D120785B
:100560002E2817D114F8010F45F004052A280ED0C3
:100570006FF02F022078A0F1300109290AD808EB8A
:10058000880102EB410100EB0108641CF2E757F817
:10059000048B641C20786C280DD004DC4C2812D00D
:1005A0006A2811D104E074280DD07A280CD10AE011
:1005B00045F4001507E0617845F48015814202D1C9
:1005C000641C05F58015641C2278692A45D008DC76
:1005D000002AB3D0582A69D0632A10D0642A08D1DF
:1005E0003BE0702A67D0732A13D0752A5CD0782A32
:1005F0005CD010465A460F999047761CD3E017F806
:10060000040B8DF8000000208DF80100E946012060
:1006100003E057F8049B4FF0FF3069074FF00005E7
:1006200001D40AE06D1C45450DDA8542FADB19F864
:1006300005100029F6D106E06D1C8542FCDB19F897
:1006400005100029F8D12E4404E019F8010B5A4690
:100650000F9990476D1EF8D2A5E00A200021CDE940
:100660000801C5F3025002280DD001CFC117031EA7
:1006700071F100030DDA4FF0000CD0EB0C006CEBC5
:1006800001012D2308E0FF1D27F00707F7E802010D
:10069000EDE72B0504D52B238DF8283001233BE013
:1006A000EB0739D02023F7E70A2000E010200021D3
:1006B000CDE9080107E01020002145F00405CDE94F
:1006C00008014FF00808C5F3025002280FD001CFEF
:1006D00000214FF0000A2B071FD5702A0DD0DDE94D
:1006E00008C38CF0100C5CEA030C0CD015E0FF1D65
:1006F00027F00707F7E80201EBE740228DF82820F2
:100700004FF0010A0BE050EA010306D030238DF8C8
:1007100028308DF8292002239A46582A04D024A292
:100720000DF120090B9209E026A2F9E7DDE9082383
:10073000FFF79DFD0B9B9B5C09F8013D50EA010210
:10074000F4D1ADEB090020300890680701D44FF0D8
:1007500001080899884502DDA8EB010000E00020AF
:100760008046002506E00AA85A46405D0F9990474A
:100770006D1C761C5545F6DB04E030205A460F9977
:100780009047761CB8F10001A8F10108F5DC05E0FE
:1007900019F8010B5A460F999047761C0899481E84
:1007A00008900029F4DC641CC5E60000092801005B
:1007B00030313233343536373839616263646566D7
:1007C0000000000030313233343536373839414299
:1007D000434445460000000010B504466FF0040095
:1007E000FFF730FEE11704EB5171C1F3C701074A6F
:1007F00011701046007800EB4001C1EBC0104FF6BD
:10080000FF7101EAC0000249088010BD0800002005
:100810000A00002070B504464FF4077094FBF0F016
:10082000C6B24FF4077094FBF0F100FB114085B2A3
:1008300005E04FF4077000F009F8701EC6B2002EF4
:10084000F7D115B1284600F001F870BD0146114AF4
:1008500012884A434FF0E0235A6100229A611A46F7
:10086000126942F001021A6100BF4FF0E0221069E4
:1008700000F001021AB100F48032002AF5D04FF0E6
:10088000E022126922F001024FF0E0231A610022F7
:100890009A6170470A000020074A126802F08072CD
:1008A00042B100BF4FF060421268002AFAD04FF008
:1008B0006043187070470000FCED00E02DE9F34F35
:1008C00091B08146002001900C90EDE084A00C993D
:1008D000FFF702FE002424E009EBC400D0E9001079
:1008E000621D09EBC2030CCB5140584004F10A02CF
:1008F00009EBC2030CCB5140584004F10F0209EB45
:10090000C2030CCB5140584004F1140209EBC2035E
:100910000CCB5140584002AA02EBC402C2E90010BD
:10092000641C052CD8DB00243EE0201D052190FB33
:10093000F1F201FB120002A901EBC000D0E9003086
:10094000611C052291FBF2F702FB171102AA02EBD0
:10095000C101D1E9002192184941671C4FF0050CF3
:1009600097FBFCF80CFB18770DF1080C0CEBC70794
:100970007F6842EAD77283EA020580EA01064FF0F7
:10098000000A0DE00AEB040009EBC00103C968404E
:1009900071400AEB040209EBC20203C20AF1050A24
:1009A000BAF1190FEEDB641C052CBEDBD9E9025647
:1009B000002427E0564850F834A009EBCA0003C8C9
:1009C000CDE90201534850F83420AB465846314631
:1009D0000F96FFF7F5FB074688464E4850F834104F
:1009E0004020421A28463146CDE90D65FFF7F7FB56
:1009F000074348EA010809EBCA00C0E90078DDE9CD
:100A00000256641C182CD5DB4FF0000A3AE0002493
:100A100009E00AEB040009EBC00103C902AA02EBDA
:100A2000C40203C2641C052CF3DB002426E0601C16
:100A3000052190FBF1F201FB120002A901EBC000BD
:100A4000D0E90010A21C052392FBF3F703FB172249
:100A500002AB03EBC2030CCB22EA010123EA000044
:100A60000AEB040209EBC2030CCB514058400AEBDD
:100A7000040209EBC202C2E90010641C052CD6DB9B
:100A80000AF1050ABAF1190FC1DB234BD9E90001BC
:100A90000C9A03EBC202D2E9003258405140C9E936
:100AA00000010C98401C0C9012990C988842FFF49D
:100AB0000DAF002001900CE002A9019801EBC001EC
:100AC000D1E900733A4615A0FFF706FD0198401CD6
:100AD000019001980528EFDB13B0BDE8F08F00000E
:100AE0000A202A2A2A2A2A2A2A2A2A2A2A2A2A209A
:100AF00020726F756E6473203D2025642020202AAB
:100B00002A2A2A2A2A2A2A2A2A2A2A2A200A0000C3
:100B1000A0110008E0100008201000086861736848
:100B20003A20256C6C780A00A820FFF755FEFFF7E5
:100B300033FC23E04FF400711148FFF726FC4FF41B
:100B400080610F48FFF723FC4FF4FA70FFF762FE55
:100B50004FF400710A48FFF71AFC4FF4806108480F
:100B6000FFF713FC4FF4FA70FFF754FE012108461B
:100B700000F092F90121084600F0ACF8DAE7000035
:100B80000014024070B505460C460CA0FFF7A4FC0B
:100B900024B9294617A0FFF79FFC0AE0012C04D1D5
:100BA000294622A0FFF798FC03E029462DA0FFF775
:100BB00093FC3AA0FFF790FC70BD00000A202A2A9F
:100BC0002A2A2A2A2A2A2A2A2A2A2A2A2A2A2A2A85
:100BD0002A2A2A2A2A2A2A2A2A2A2A2A2A2A2A2A75
:100BE0002A2A2A2A2A2A2A2A2A2A2A2A2A2A2A206F
:100BF0000A0000000A202A2A2A2A2A2A2A2A2A2A1D
:100C00002A2A2A2020534841332054455354202572
:100C1000642050415353454420202A2A2A2A2A2A54
:100C20002A2A2A2A2A2A2A200A0000000A202A2AF6
:100C30002A2A2A2A2A2A2A2A2A2A2A2020534841CA
:100C4000332054455354202564204641494C4544A3
:100C500020202A2A2A2A2A2A2A2A2A2A2A2A2A2012
:100C60000A0000000A202A2A2A2A2A2A2A2A2020C0
:100C7000534841332054455354202564204E4F544B
:100C80005F494D504C454D454E54454420202A2A3D
:100C90002A2A2A2A2A2A2A200A0000000A202A2A86
:100CA0002A2A2A2A2A2A2A2A2A2A2A2A2A2A2A2AA4
:100CB0002A2A2A2A2A2A2A2A2A2A2A2A2A2A2A2A94
:100CC0002A2A2A2A2A2A2A2A2A2A2A2A2A2A2A2A84
:100CD000200A00002DE9F043C7B006460F46012464
:100CE0002C2239A13CA8FFF78AFA40212CA8FFF753
:100CF0009FFA1C2125A8FFF79BFA20211DA8FFF7CA
:100D000097FA302111A8FFF793FA402101A8FFF7C5
:100D10008FFAA046002500BF4DE03CA8FFF793FAEC
:100D200081462CAB4A463CA93046FFF769FB80461A
:100D3000B8F1010F03D1012047B0BDE8F08336B10F
:100D4000012E0ED0022E16D0032E28D11DE01C221B
:100D50002CA925A8FFF77EFA08B9002400E0012499
:100D60001FE020222CA91DA8FFF774FA08B900245F
:100D700000E0012415E030222CA911A8FFF76AFA3F
:100D800008B9002400E001240BE040222CA901A8AE
:100D9000FFF760FA08B9002400E0012401E0012413
:100DA00000BF00BF012C05D121462846FFF7EAFE0F
:100DB0002046C1E76D1CBD42AFD321462846FFF750
:100DC000E1FE2046B8E7000054686520717569634C
:100DD0006B2062726F776E20666F78206A756D7017
:100DE00073206F76657220746865206C617A792053
:100DF000646F670070B504460D462946204600F032
:100E000001F970BD70B505460C46D0212046FFF7AC
:100E10000FFA35B1012D0FD0022D18D0032D2CD192
:100E200020E04FF4906024F8C80F4FF4E070608029
:100E30001C20A080C83C22E04FF4886024F8C80F32
:100E40004FF4007060802020A080C83C17E04FF471
:100E5000507024F8C80F4FF4407060803020A0809C
:100E6000C83C0CE04FF4107024F8C80F4FF48060B9
:100E700060804020A080C83C01E0012070BD00BF20
:100E8000B4F8C800C11700EB5171C1F3C70184F871
:100E9000CE100020F2E700002DE9F043BDB0064679
:100EA0000F46012438A000683C9040212CA8FFF791
:100EB000BFF91C2125A8FFF7BBF920211DA8FFF7CA
:100EC000B7F9302111A8FFF7B3F9402101A8FFF7C6
:100ED000AFF9A046002500BF4DE03CA8FFF7B3F9ED
:100EE00081462CAB4A463CA93046FFF789FA80463A
:100EF000B8F1010F03D101203DB0BDE8F08336B158
:100F0000012E0ED0022E16D0032E28D11DE01C2259
:100F10002CA925A8FFF79EF908B9002400E00124B8
:100F20001FE020222CA91DA8FFF794F908B900247E
:100F300000E0012415E030222CA911A8FFF78AF95E
:100F400008B9002400E001240BE040222CA901A8EC
:100F5000FFF780F908B9002400E0012401E0012432
:100F600000BF00BF012C05D121462846FFF70AFE2D
:100F70002046C1E76D1CBD42AFD321462846FFF78E
:100F800001FE2046B8E70000616263002DE9F047EA
:100F9000B2B080468946924602240025A107144833
:100FA000CDE90010012406E000216A4602EBC402EC
:100FB00011605160641C172CF6DD18210020CDE96A
:100FC0003010002509E0684600EBC500D0E9006359
:100FD000324608A0FFF780FA6D1C192DF3DB1821AB
:100FE0006846FFF76BFC002032B0BDE8F0870000D8
:100FF000616263066D657373616765203A20256CD5
:101000006C780A0002460020704770B504460D4611
:101010001646324629462046FFF7B8FF70BD00004D
:1010200001000000000000008280000000000000BD
:101030008A800000000000800080008000000080A6
:101040008B80000000000000010000800000000014
:101050008180008000000080098000000000008086
:101060008A0000000000000088000000000000006E
:1010700009800080000000000A00008000000000DD
:101080008B800080000000008B00000000000080CA
:1010900089800000000000800380000000000080C4
:1010A000028000000000008080000000000000803E
:1010B0000A800000000000000A000080000000809C
:1010C000818000800000008080800000000000809F
:1010D0000100008000000000088000800000008007
:1010E00001000000000000000300000000000000FC
:1010F00006000000000000000A00000000000000E0
:101100000F000000000000001500000000000000BB
:101110001C0000000000000024000000000000008F
:101120002D0000000000000037000000000000005B
:1011300002000000000000000E000000000000009F
:101140001B0000000000000029000000000000005B
:10115000380000000000000008000000000000004F
:1011600019000000000000002B000000000000003B
:101170003E0000000000000012000000000000001F
:1011800027000000000000003D00000000000000FB
:1011900014000000000000002C000000000000000F
:1011A0000A0000000000000007000000000000002E
:1011B0000B00000000000000110000000000000013
:1011C000120000000000000003000000000000000A
:1011D00005000000000000001000000000000000FA
:1011E00008000000000000001500000000000000E2
:1011F00018000000000000000400000000000000D3
:101200000F000000000000001700000000000000B8
:1012100013000000000000000D00000000000000AE
:101220000C000000000000000200000000000000B0
:1012300014000000000000000E000000000000008C
:10124000160000000000000009000000000000007F
:101250000600000000000000010000000000000087
:1012600080120008000000200C000000F8040008B4
:101270008C1200080C00002004040000080500087F
:0C12800000000000000000000000000062
:040000050800018965
:00000001FF
