:020000040800F2
:10000000080400209D010008DB020008D30200085C
:10001000D7020008CD0200084903000800000000D4
:10002000000000000000000000000000DF020008E7
:10003000D102000800000000DD020008E102000813
:10004000B7010008B7010008B7010008B7010008B0
:10005000B7010008B7010008B7010008B7010008A0
:10006000B7010008B7010008B7010008B701000890
:10007000B7010008B7010008B7010008B701000880
:10008000B7010008B7010008B7010008B701000870
:10009000B7010008B7010008B7010008B701000860
:1000A000B7010008B7010008B7010008B701000850
:1000B000B7010008B7010008B7010008B701000840
:1000C000B7010008B7010008B7010008B701000830
:1000D000B7010008B7010008B7010008B701000820
:1000E000B7010008B7010008B7010008B701000810
:1000F000B7010008B7010008B7010008B701000800
:10010000B7010008B7010008B7010008B7010008EF
:10011000B7010008B7010008B7010008B7010008DF
:10012000B7010008B7010008B7010008B7010008CF
:10013000B7010008B7010008B7010008B7010008BF
:10014000B7010008B7010008B7010008B7010008AF
:10015000B7010008B7010008B7010008B70100089F
:10016000B7010008B7010008B7010008B70100088F
:10017000B7010008B7010008B7010008B70100087F
:10018000B7010008B7010008DFF80CD000F08CF8C8
:100190000048004771060008080400200648804710
:1001A00006480047FEE7FEE7FEE7FEE7FEE7FEE75C
:1001B000FEE7FEE7FEE7FEE7E5020008890100082A
:1001C000202A04DB203A00FA02F100207047914017
:1001D000C2F1200320FA03F3194390407047202A0C
:1001E00004DB203A21FA02F00021704721FA02F3E1
:1001F000D040C2F12002914008431946704740EABE
:1002000001039B0703D009E008C9121F08C0042A94
:10021000FAD203E011F8013B00F8013B521EF9D27B
:100220007047D2B201E000F8012B491EFBD27047A3
:100230000022F6E710B513460A4604461946FFF7B2
:10024000F0FF204610BD2DE9F05F054600209246E4
:100250009B4688460646814640241BE02846414688
:1002600047462246FFF7BBFF53465A46C01A914104
:1002700010D3114618462246FFF7A2FF2D1A67EB4E
:1002800001084F46224601200021FFF799FF17EB96
:1002900000094E41201EA4F10104DFDC484631462E
:1002A0002A464346BDE8F09F064C074D06E0E0684D
:1002B00040F0010394E8070098471034AC42F6D3AD
:1002C000FFF766FF781200089812000800BFFEE7EB
:1002D000704700BFFEE700BFFEE7704770477047FA
:1002E000704700001448006840F47000124908602C
:1002F0001248006840F001001049086000200F49D2
:10030000083108600D4800680D4908400B49086035
:100310000C48091D0860081F006820F48020091F90
:100320000860002005490C3108604FF00060024968
:10033000803908607047000088ED00E00038024016
:10034000FFFFF6FE1030002400BFFEE70FB4054BA0
:1003500010B503A9044A029800F018F810BC5DF823
:1003600014FB00004D0600080000002002E008C851
:10037000121F08C1002AFAD170477047002001E01F
:1003800001C1121F002AFBD1704700002DE9FF4F69
:100390008DB09B460F460446002606E025280BD06C
:1003A0005A460F999047641C761C20780028F5D196
:1003B00011B03046BDE8F08F0025A84601229849CB
:1003C00000E0054314F8013F203B02FA03F0084225
:1003D000F7D120782E2817D114F8010F45F0040525
:1003E0002A280ED06FF02F022078A0F130010929C1
:1003F0000AD808EB880102EB410100EB0108641CFC
:10040000F2E757F8048B641C20786C280DD004DCCC
:100410004C2812D06A2811D104E074280DD07A2813
:100420000CD10AE045F4001507E0617845F4801529
:10043000814202D1641C05F58015641C2278692A6A
:1004400045D008DC002AB3D0582A69D0632A10D0DE
:10045000642A08D13BE0702A67D0732A13D0752A2A
:100460005CD0782A5CD010465A460F999047761C8B
:10047000D3E017F8040B8DF8000000208DF8010080
:10048000E946012003E057F8049B4FF0FF3069076D
:100490004FF0000501D40AE06D1C45450DDA854298
:1004A000FADB19F805100029F6D106E06D1C85422B
:1004B000FCDB19F805100029F8D12E4404E019F8E6
:1004C000010B5A460F9990476D1EF8D2A5E00A20FD
:1004D0000021CDE90801C5F3025002280DD001CF5B
:1004E000C117031E71F100030DDA4FF0000CD0EBC1
:1004F0000C006CEB01012D2308E0FF1D27F007071E
:10050000F7E80201EDE72B0504D52B238DF8283001
:1005100001233BE0EB0739D02023F7E70A2000E076
:1005200010200021CDE9080107E01020002145F04E
:100530000405CDE908014FF00808C5F30250022870
:100540000FD001CF00214FF0000A2B071FD5702AD2
:100550000DD0DDE908C38CF0100C5CEA030C0CD064
:1005600015E0FF1D27F00707F7E80201EBE740223F
:100570008DF828204FF0010A0BE050EA010306D065
:1005800030238DF828308DF8292002239A46582AE6
:1005900004D024A20DF120090B9209E026A2F9E76C
:1005A000DDE90823FFF74FFE0B9B9B5C09F8013D3B
:1005B00050EA0102F4D1ADEB090020300890680741
:1005C00001D44FF001080899884502DDA8EB01002D
:1005D00000E000208046002506E00AA85A46405D5B
:1005E0000F9990476D1C761C5545F6DB04E03020D2
:1005F0005A460F999047761CB8F10001A8F10108FE
:10060000F5DC05E019F8010B5A460F999047761C66
:100610000899481E08900029F4DC641CC5E6000017
:1006200009280100303132333435363738396162C8
:10063000636465660000000030313233343536378C
:10064000383941424344454600000000074A1268D9
:1006500002F0807242B100BF4FF060421268002A7F
:10066000FAD04FF06043187070470000FCED00E0D6
:1006700070B504460D4605A0FFF768FE00F00AFAC3
:100680000CA0FFF763FE002070BD000046495053E8
:1006900020323032202F2053484133202053656CC4
:1006A000662D5465737473205B73746172745D217D
:1006B0000A0000004649505320323032202F205388
:1006C000484133202053656C662D54657374732044
:1006D0005B656E645D210A00F0B5B7B004460D4657
:1006E00016461F463946684600F03EF82A4621461F
:1006F000684600F071F96946304600F003F830466C
:1007000037B0F0BD70B506460C46D4F8C800205C82
:1007100080F00600D4F8C8106054D4F8CC00401E15
:10072000205C80F08001D4F8CC00401E215420468B
:1007300000F032F8002502E0605D70556D1CD4F8C1
:10074000D000A842F8DC002505E0725D294604A02F
:10075000FFF7FCFD6D1C402DF7DB012070BD000094
:100760002564202558200A0070B50246002305E0C4
:10077000002502EBC306356075605B1C192BF7DBA7
:10078000C83291604800C0F1C8045460002042F8AB
:10079000C809012070BD00002DE9F04FEFB081467F
:1007A000C0228B493CA8FFF72AFD60228849C0314E
:1007B00024A8FFF724FD602286490CA8FFF71FFD3F
:1007C00000200B90FDE04FF0000826E009EBC80187
:1007D00003C908F1050209EBC2030CCB5040594094
:1007E00008F10A0209EBC2030CCB5040594008F152
:1007F0000F0209EBC2030CCB424081EA030008F16F
:10080000140109EBC1030ACB4A405840694601EB89
:10081000C801C1E9002008F10108B8F1050FD5DBD6
:100820004FF0000840E008F10400052190FBF1F2D0
:1008300001FB1200694601EBC000D0E9003008F16D
:100840000101052291FBF2F602FB16116A4602EB4A
:10085000C101D1E900219218494108F1010605279B
:1008600096FBF7FC07FB1C666F4607EBC60676682F
:1008700042EAD67283EA020480EA01054FF0000AD8
:100880000DE00AEB080009EBC00103C960406940B4
:100890000AEB080209EBC20203C20AF1050ABAF127
:1008A000190FEEDB08F10108B8F1050FBBDBD9E940
:1008B00002454FF0000826E00CA850F828A009EBEC
:1008C000CA0103C9CDE9000124A850F82820A34695
:1008D000584629466E95FFF773FC06460F4624A836
:1008E00050F82800C0F14002204629466C956D94CE
:1008F000FFF775FC06430F4309EBCA00C0C0DDE9F2
:10090000004508F10108B8F1180FD5DB4FF0000AD7
:1009100045E04FF000080CE00AEB080009EBC000CE
:10092000D0E900106A4602EBC802C2E9001008F1E3
:100930000108B8F1050FEFDB4FF000082AE008F1DD
:100940000100052190FBF1F201FB1200694601EB69
:10095000C000D0E9001008F10202052392FBF3F673
:1009600003FB16226B4603EBC202D2E9003223EAF4
:10097000010122EA00000AEB080209EBC2030CCBDA
:10098000514058400AEB080209EBC202C2E90010CC
:1009900008F10108B8F1050FD1DB0AF1050ABAF137
:1009A000190FB6DB3CABD9E900010B9A03EBC2028D
:1009B000D2E9003258405140C9E900010B98401C6F
:1009C0000B900B981828FFF6FEAE6FB0BDE8F08FC5
:1009D000600B0008800C00082DE9F04104460F462A
:1009E0009046D4F8C86000250FE03146761C0819FF
:1009F00001787A5D51400170D4F8CC00B04203DC3C
:100A00002046FFF7C9FE00266D1C4545EDD3C4F80E
:100A1000C8600120BDE8F0810146302904DB392996
:100A200002DCA1F130007047412904DB462902DCD9
:100A3000A1F13700F7E7612904DB662902DCA1F1A7
:100A40005700F0E74FF0FF30EDE72DE9F047804623
:100A50000F469146002418E017F81400FFF7DCFF5A
:100A60000546002D02DA2046BDE8F0876100491CEA
:100A7000785CFFF7D1FF0646002E01DA2046F3E747
:100A800006EB051008F80400641C4C45E4DB204626
:100A9000EAE70000F0B5E9B020221C4961A8FFF7A1
:100AA000AEFB002600242BE0402151A8FFF7C0FB3D
:100AB000402141A8FFF7BCFB4FF4807101A8FFF76C
:100AC000B7FB61A850F834104FF4807201A8FFF70B
:100AD000BCFF074661A800EBC4004022416851A852
:100AE000FFF7B3FF0546EA003B46214608A0FFF7A3
:100AF0002DFC2B4641AA394601A8FFF7EDFD641CE9
:100B0000042CD1DB304669B0F0BD00002C0B00088E
:100B10005B25645D20534841332D25642C206C6592
:100B20006E2025642074657374200A007C10000810
:100B30006C0F0008640F0008AC110008A80F000833
:100B400048110008E00C0008E00E0008341200080C
:100B500004110008C0100008F01100080000000097
:100B60000100000000000000828000000000000082
:100B70008A8000000000008000800080000000806B
:100B80008B800000000000000100008000000000D9
:100B9000818000800000008009800000000000804B
:100BA0008A00000000000000880000000000000033
:100BB00009800080000000000A00008000000000A2
:100BC0008B800080000000008B000000000000808F
:100BD0008980000000000080038000000000008089
:100BE0000280000000000080800000000000008003
:100BF0000A800000000000000A0000800000008061
:100C00008180008000000080808000000000008063
:100C100001000080000000000880008000000080CB
:100C20000100000003000000060000000A000000B0
:100C30000F000000150000001C0000002400000050
:100C40002D00000037000000020000000E00000030
:100C50001B00000029000000380000000800000010
:100C6000190000002B0000003E00000012000000F0
:100C7000270000003D000000140000002C000000D0
:100C80000A000000070000000B0000001100000037
:100C9000120000000300000005000000100000002A
:100CA000080000001500000018000000040000000B
:100CB0000F00000017000000130000000D000000EE
:100CC0000C00000002000000140000000E000000F4
:100CD00016000000090000000600000001000000EE
:100CE0003341334138313943343845464445324144
:100CF000443931344642463030453138414236423B
:100D00004334463134353133414232374430433154
:100D1000373841313838423631343331453746354A
:100D20003632334342363642323333343637373550
:100D3000443338364235304539383243343933411B
:100D400044424246433534423941334344333833D5
:100D5000333832333336413141304232313530412C
:100D60003135333538463333364430334145313805
:100D700046363636433735373344353543344644C3
:100D8000313831433239453643434644453633459D
:100D90004133354630414446353838354346433093
:100DA000413344383441324232453444443234349D
:100DB0003936444237383945363633313730434592
:100DC000463734373938414131424243443435376C
:100DD0003445413042424134303438394437363476
:100DE0004232463833414144433636423134384248
:100DF0003441304344393532343643313237443567
:100E00003837314334463131343138363930413571
:100E10004444463031323436413043383041343343
:100E2000433730303838423631383336333944433B
:100E3000464441343132354244313133413846340D
:100E400039454532334544333036464141433537E1
:100E500036433346423043314532353636373144F6
:100E600038313746433235333441353246354234F2
:100E700033394637324534323444453337364634D5
:100E800043353635434341383233303744443945AE
:100E9000463736444135423743344542374530388A
:100EA00035313732453332383830374330324430D9
:100EB0003131464642463333373835333738443795
:100EC0003944433236364636413542453642423061
:100ED00045344139324543454542414542310000A0
:100EE000364538423842443139354244443536304B
:100EF000363839414632333438424443373441423C
:100F0000374344303545443842394135373731313C
:100F10004539424537314539373236464441343513
:100F200039314645453132323035454441434146F9
:100F300038324646424241463136444646394537C4
:100F40003032413730383836323038303136364347
:100F500032464636424133373942433746464332BA
:100F60000000000036313632363300003642344558
:100F700030333432333636374442423733423645E3
:100F800031353435344630454231414244343539C7
:100F9000374639413142303738453346354235419D
:100FA000364243370000000045333537383045427C
:100FB000393739394144344337373533354434448C
:100FC0004442363833434633334546333637373178
:100FD0003533323743463443344135384544394359
:100FE0004244434444343836463636394638303144
:100FF0003839443534394139333634464138324151
:10100000353141353236353445433732314242335A
:1010100041414239354443454234413836413641F5
:101020004641393338323644423932333531374527
:10103000393238463333453346424138353044340B
:1010400035363630454638334239383736414343F2
:1010500041464132413939383741323534423133F2
:10106000374336453134304132313639314531300C
:1010700036393431333834380000000036313632F6
:10108000363336343635363636373638363136320C
:1010900036333634363536363637363836313632FC
:1010A00036333634363536363637363836313632EC
:1010B00036333634363536363637363800000000AB
:1010C000343443394642333539464435364143306A
:1010D0004139413735413734334346463638363265
:1010E000463137443732353941423037353231367F
:1010F0004330363939353131363433423634333989
:10110000000000004142304241453331363333392B
:101110003839343330344533353837374230433259
:10112000384139423146443136364337393642390F
:10113000434332353841303634413846353745320D
:1011400037463241000000004431433046413835D3
:1011500043384431383342454646393941443944AD
:1011600037353242323633453238364234373746F5
:101170003739463037313042303130333137303122
:1011800037333937383133333434423939444146CF
:101190003342423742314243354538443732324296
:1011A0004143383539343341000000003141443780
:1011B0004135314542423644423843464430463454
:1011C0003044383345333938463041384144364568
:1011D0003746443442393845363632334239324361
:1011E0004643374331384334333235410000000041
:1011F0003641314139443738343634333645344456
:101200004341353732384236463736304545463029
:10121000434139324246304245353631354539361B
:10122000393539443736373139374130424545420F
:101230000000000034334534314234354136353313
:1012400046324135433434393243314144443534F4
:10125000343531324444413235323938333334361F
:1012600032423731413431413435424539373239F0
:1012700030423646000000009812000800000020AE
:10128000080000006C030008A012000808000020FD
:10129000000400007C0300080000000000000000C3
:040000050800018965
:00000001FF
